:1000000010C017C016C015C014C013C012C011C054
:1000100010C00FC00EC00DC00CC00BC00AC009C07C
:1000200008C011241FBECFE5D2E0DEBFCDBF02D095
:100030003DC0E6CFD09AD19AD29AD39A50E040E010
:1000400070E060E090E080E030E020E0FC01E170F2
:10005000FF27E627F727D901A170BB27EA17FB077F
:1000600009F1DA9A28173907F9F4DB9AD89AD8985F
:1000700001968830910559F4D99AD9982F5F3F4F4E
:1000800090E080E02830310511F430E020E04F5F4F
:100090005F4F4032EEE45E07C9F641E0642750E06E
:1000A00040E0D4CFDA98DECFDB98E0CFF894FFCFF2
:00000001FF
