:1000000010C01FC01EC01DC01CC01BC01AC019C01C
:1000100018C017C016C015C014C013C012C011C03C
:1000200010C011241FBECFE5D2E0DEBFCDBF20E05F
:10003000A0E6B0E001C01D92A337B207E1F752D0AD
:1000400098C0DECF10926100E1E0F0E0B9E080916D
:10005000610080340CF00895AF0102C0440F551FB9
:100060008A95E2F7952F990F990B20916B00242325
:1000700030916C00352340916D00492350916E0002
:10008000592360916F0069237091700079238091EA
:100090007100A091720089239A23A0E052D0D1F080
:1000A000DA9A809161006B2F3FD0911117C0DB9AD3
:1000B000D89A8BB38E708BBB80916100877021F4CE
:1000C000D99A8BB38D708BBB809161008F5F8093C9
:1000D0006100BDCF8BB38B708BBBE3CF8BB38770CD
:1000E0008BBBE6CF8FE08ABBC1E0C0936200AADF82
:1000F00080916200082E000C990BAA0BBB0B40915B
:100100006700509168006091690070916A00840FE7
:10011000951FA61FB71F8093670090936800A09358
:100120006900B0936A00E1CF87FB082E062687FDA1
:10013000819567FD619511D00EF4919507FC81952D
:1001400008950024A7FD00942A17300540055005A6
:1001500060057005800590050895991B79E004C03D
:10016000991F961708F0961B881F7A95C9F78095F6
:060170000895F894FFCF92
:00000001FF
